{
  "contractName": "Identity",
  "abi": [
    {
      "inputs": [],
      "stateMutability": "nonpayable",
      "type": "constructor"
    },
    {
      "anonymous": false,
      "inputs": [
        {
          "indexed": false,
          "internalType": "address",
          "name": "personaAddress",
          "type": "address"
        }
      ],
      "name": "PersonaAdded",
      "type": "event"
    },
    {
      "anonymous": false,
      "inputs": [
        {
          "indexed": false,
          "internalType": "address",
          "name": "personaAddress",
          "type": "address"
        },
        {
          "indexed": false,
          "internalType": "address",
          "name": "validateAddress",
          "type": "address"
        },
        {
          "indexed": false,
          "internalType": "string",
          "name": "field",
          "type": "string"
        }
      ],
      "name": "ValidateAdded",
      "type": "event"
    },
    {
      "anonymous": false,
      "inputs": [
        {
          "indexed": false,
          "internalType": "address",
          "name": "personaAddress",
          "type": "address"
        },
        {
          "indexed": false,
          "internalType": "address",
          "name": "validateAddress",
          "type": "address"
        },
        {
          "indexed": false,
          "internalType": "string",
          "name": "field",
          "type": "string"
        },
        {
          "indexed": false,
          "internalType": "enum Identity.ValidationStatus",
          "name": "validationStatus",
          "type": "uint8"
        }
      ],
      "name": "Validated",
      "type": "event"
    },
    {
      "anonymous": false,
      "inputs": [
        {
          "indexed": false,
          "internalType": "address",
          "name": "validatorAddress",
          "type": "address"
        }
      ],
      "name": "ValidatorAdded",
      "type": "event"
    },
    {
      "inputs": [
        {
          "internalType": "string",
          "name": "s1",
          "type": "string"
        },
        {
          "internalType": "string",
          "name": "s2",
          "type": "string"
        }
      ],
      "name": "compareStringsbyBytes",
      "outputs": [
        {
          "internalType": "bool",
          "name": "",
          "type": "bool"
        }
      ],
      "stateMutability": "pure",
      "type": "function",
      "constant": true
    },
    {
      "inputs": [
        {
          "internalType": "address",
          "name": "validatorAddress",
          "type": "address"
        }
      ],
      "name": "getValidatorByAddress",
      "outputs": [
        {
          "internalType": "uint256",
          "name": "validatorId",
          "type": "uint256"
        },
        {
          "internalType": "uint256",
          "name": "numberOfValidations",
          "type": "uint256"
        },
        {
          "internalType": "enum Identity.ValidationCostStrategy",
          "name": "strategy",
          "type": "uint8"
        },
        {
          "internalType": "uint256",
          "name": "price",
          "type": "uint256"
        }
      ],
      "stateMutability": "view",
      "type": "function",
      "constant": true
    },
    {
      "inputs": [
        {
          "internalType": "enum Identity.ValidationCostStrategy",
          "name": "validationCostStrategy",
          "type": "uint8"
        },
        {
          "internalType": "uint256",
          "name": "price",
          "type": "uint256"
        }
      ],
      "name": "addValidator",
      "outputs": [],
      "stateMutability": "nonpayable",
      "type": "function"
    },
    {
      "inputs": [],
      "name": "getTotalValidators",
      "outputs": [
        {
          "internalType": "uint256",
          "name": "",
          "type": "uint256"
        }
      ],
      "stateMutability": "view",
      "type": "function",
      "constant": true
    },
    {
      "inputs": [
        {
          "internalType": "address",
          "name": "personaAddress",
          "type": "address"
        }
      ],
      "name": "getPersonaByAddress",
      "outputs": [
        {
          "internalType": "uint256",
          "name": "personaId",
          "type": "uint256"
        },
        {
          "internalType": "string[]",
          "name": "infoFields",
          "type": "string[]"
        },
        {
          "internalType": "string[]",
          "name": "infoValues",
          "type": "string[]"
        },
        {
          "internalType": "uint256",
          "name": "score",
          "type": "uint256"
        }
      ],
      "stateMutability": "view",
      "type": "function",
      "constant": true
    },
    {
      "inputs": [
        {
          "internalType": "string[]",
          "name": "fields",
          "type": "string[]"
        },
        {
          "internalType": "string[]",
          "name": "values",
          "type": "string[]"
        }
      ],
      "name": "addPersona",
      "outputs": [],
      "stateMutability": "nonpayable",
      "type": "function"
    },
    {
      "inputs": [],
      "name": "getTotalPersonas",
      "outputs": [
        {
          "internalType": "uint256",
          "name": "",
          "type": "uint256"
        }
      ],
      "stateMutability": "view",
      "type": "function",
      "constant": true
    },
    {
      "inputs": [
        {
          "internalType": "address",
          "name": "validatorAddress",
          "type": "address"
        },
        {
          "internalType": "string",
          "name": "field",
          "type": "string"
        },
        {
          "internalType": "string",
          "name": "value",
          "type": "string"
        },
        {
          "internalType": "string",
          "name": "ipfsHash",
          "type": "string"
        }
      ],
      "name": "askToValidate",
      "outputs": [],
      "stateMutability": "payable",
      "type": "function",
      "payable": true
    },
    {
      "inputs": [
        {
          "internalType": "address",
          "name": "personaAddress",
          "type": "address"
        },
        {
          "internalType": "string",
          "name": "field",
          "type": "string"
        },
        {
          "internalType": "enum Identity.ValidationStatus",
          "name": "validationStatus",
          "type": "uint8"
        }
      ],
      "name": "validate",
      "outputs": [],
      "stateMutability": "payable",
      "type": "function",
      "payable": true
    },
    {
      "inputs": [
        {
          "internalType": "uint256",
          "name": "personaId",
          "type": "uint256"
        }
      ],
      "name": "getIdsDataToBeValidatedIdByPersonaId",
      "outputs": [
        {
          "internalType": "uint256[]",
          "name": "ids",
          "type": "uint256[]"
        }
      ],
      "stateMutability": "view",
      "type": "function",
      "constant": true
    },
    {
      "inputs": [
        {
          "internalType": "uint256",
          "name": "dataToBeValidatedId",
          "type": "uint256"
        }
      ],
      "name": "getDataToBeValidatedById",
      "outputs": [
        {
          "internalType": "uint256",
          "name": "idPersona",
          "type": "uint256"
        },
        {
          "internalType": "uint256",
          "name": "price",
          "type": "uint256"
        },
        {
          "internalType": "string",
          "name": "field",
          "type": "string"
        },
        {
          "internalType": "string",
          "name": "ipfsPath",
          "type": "string"
        },
        {
          "internalType": "enum Identity.ValidationStatus",
          "name": "lastStatus",
          "type": "uint8"
        }
      ],
      "stateMutability": "view",
      "type": "function",
      "constant": true
    },
    {
      "inputs": [
        {
          "internalType": "uint256",
          "name": "dataToBeValidatedId",
          "type": "uint256"
        }
      ],
      "name": "getIdsStampsByDataToBeValidatedId",
      "outputs": [
        {
          "internalType": "uint256[]",
          "name": "ids",
          "type": "uint256[]"
        }
      ],
      "stateMutability": "view",
      "type": "function",
      "constant": true
    },
    {
      "inputs": [
        {
          "internalType": "uint256",
          "name": "stampId",
          "type": "uint256"
        }
      ],
      "name": "getStampById",
      "outputs": [
        {
          "internalType": "uint256",
          "name": "idDataToBeValidated",
          "type": "uint256"
        },
        {
          "internalType": "enum Identity.ValidationStatus",
          "name": "status",
          "type": "uint8"
        },
        {
          "internalType": "uint256",
          "name": "whenDate",
          "type": "uint256"
        },
        {
          "internalType": "address",
          "name": "addressValidator",
          "type": "address"
        }
      ],
      "stateMutability": "view",
      "type": "function",
      "constant": true
    }
  ],
  "bytecode": "0x60806040523480156200001157600080fd5b506200001c62000446565b6000805460018181018355918052825160069091027f290decd9548b62a8d60345a988386fc84ba6bc95484008f6362f93160ef3e563810191825560208401517f290decd9548b62a8d60345a988386fc84ba6bc95484008f6362f93160ef3e564820180546001600160a01b039092166001600160a01b031990921691909117905560408401517f290decd9548b62a8d60345a988386fc84ba6bc95484008f6362f93160ef3e56582015560608401517f290decd9548b62a8d60345a988386fc84ba6bc95484008f6362f93160ef3e5669091018054859460ff199091169083818111156200010757fe5b02179055506080820151600482015560a0909101516005909101805460ff19169115159190911790556200013a6200047d565b6003805460018101825560009190915281517fc2575a0e9e593c00f959f8c92f12db2869c3395a3b0502d05e2516446f71f85b60069092029182019081556020808401517fc2575a0e9e593c00f959f8c92f12db2869c3395a3b0502d05e2516446f71f85c840180546001600160a01b0319166001600160a01b03909216919091179055604084015180518594620001f9937fc2575a0e9e593c00f959f8c92f12db2869c3395a3b0502d05e2516446f71f85d909101920190620004be565b506060820151805162000217916003840191602090910190620004be565b506080820151600482015560a0909101516005909101805460ff19169115159190911790556200024662000522565b600680546001810182556000829052825191027ff652222313e28459528d920b65115c16c04f3efc82aaedc97be59f3f377c0d3f81019182556020808401517ff652222313e28459528d920b65115c16c04f3efc82aaedc97be59f3f377c0d4083015560408401517ff652222313e28459528d920b65115c16c04f3efc82aaedc97be59f3f377c0d41830155606084015180518594936200030e937ff652222313e28459528d920b65115c16c04f3efc82aaedc97be59f3f377c0d4290910192019062000563565b50608082015180516200032c91600484019160209091019062000563565b5060a082015160058201805460ff191660018360038111156200034b57fe5b021790555050506200035c620005e4565b600b805460018181018355600092909252825160059091027f0175b7a638427703f0dbe7bb9bbf987a2551717b34e79f33b5b1008d1fa01db9810191825560208401517f0175b7a638427703f0dbe7bb9bbf987a2551717b34e79f33b5b1008d1fa01dba82015560408401517f0175b7a638427703f0dbe7bb9bbf987a2551717b34e79f33b5b1008d1fa01dbb9091018054859460ff19909116908360038111156200040457fe5b021790555060608201516003820155608090910151600490910180546001600160a01b0319166001600160a01b03909216919091179055506200069e92505050565b6040805160c0810182526000808252602082018190529181018290529060608201905b815260006020820181905260409091015290565b6040518060c001604052806000815260200160006001600160a01b031681526020016060815260200160608152602001600081526020016000151581525090565b82805482825590600052602060002090810192821562000510579160200282015b82811115620005105782518051620004ff91849160209091019062000563565b5091602001919060010190620004df565b506200051e9291506200060b565b5090565b6040518060c001604052806000815260200160008152602001600081526020016060815260200160608152602001600060038111156200055e57fe5b905290565b828054600181600116156101000203166002900490600052602060002090601f016020900481019282601f10620005a657805160ff1916838001178555620005d6565b82800160010185558215620005d6579182015b82811115620005d6578251825591602001919060010190620005b9565b506200051e92915062000636565b6040518060a001604052806000815260200160008152602001600060038111156200046957fe5b6200063391905b808211156200051e57600062000629828262000653565b5060010162000612565b90565b6200063391905b808211156200051e57600081556001016200063d565b50805460018160011615610100020316600290046000825580601f106200067b57506200069b565b601f0160209004906000526020600020908101906200069b919062000636565b50565b6122af80620006ae6000396000f3fe6080604052600436106100d25760003560e01c8063b09726ae1161007f578063db8351a511610059578063db8351a514610235578063e9a734ff1461024a578063ec785db214610277578063f43b35921461028a576100d2565b8063b09726ae146101e0578063b8d2ca1c146101f5578063cbe9393314610215576100d2565b806354f34b1b116100b057806354f34b1b1461014f578063630fc14714610180578063853aa1c9146101b0576100d2565b8063295912df146100d75780633076e3e4146101025780634b6727851461012f575b600080fd5b3480156100e357600080fd5b506100ec6102ba565b6040516100f99190612126565b60405180910390f35b34801561010e57600080fd5b5061012261011d366004611c54565b6102c5565b6040516100f99190611d92565b34801561013b57600080fd5b5061012261014a366004611c54565b610328565b34801561015b57600080fd5b5061016f61016a366004611c54565b610388565b6040516100f99594939291906121c9565b34801561018c57600080fd5b506101a061019b366004611a46565b610510565b6040516100f9949392919061219f565b3480156101bc57600080fd5b506101d06101cb366004611c54565b610649565b6040516100f9949392919061216c565b6101f36101ee366004611ad8565b6106a0565b005b34801561020157600080fd5b506101f3610210366004611b6e565b610d1e565b34801561022157600080fd5b506101f3610230366004611bcf565b610f00565b34801561024157600080fd5b506100ec6110b6565b34801561025657600080fd5b5061026a610265366004611bfd565b6110c0565b6040516100f99190611dd6565b6101f3610285366004611a68565b61111a565b34801561029657600080fd5b506102aa6102a5366004611a46565b6114b4565b6040516100f9949392919061212f565b600054600019015b90565b60008181526007602090815260409182902080548351818402810184019094528084526060939283018282801561031b57602002820191906000526020600020905b815481526020019060010190808311610307575b505050505090505b919050565b6000818152600c602090815260409182902080548351818402810184019094528084526060939283018282801561031b57602002820191906000526020600020908154815260200190600101908083116103075750505050509050919050565b6000806060806000806006878154811061039e57fe5b906000526020600020906006020190508060010154816002015482600301836004018460050160009054906101000a900460ff16828054600181600116156101000203166002900480601f0160208091040260200160405190810160405280929190818152602001828054600181600116156101000203166002900480156104675780601f1061043c57610100808354040283529160200191610467565b820191906000526020600020905b81548152906001019060200180831161044a57829003601f168201915b5050855460408051602060026001851615610100026000190190941693909304601f8101849004840282018401909252818152959850879450925084019050828280156104f55780601f106104ca576101008083540402835291602001916104f5565b820191906000526020600020905b8154815290600101906020018083116104d857829003601f168201915b50505050509150955095509550955095505091939590929450565b6001600160a01b03811660009081526001602052604081205481908190819085906105565760405162461bcd60e51b815260040161054d90611de1565b60405180910390fd5b6001600160a01b03861660009081526001602052604090205461057761173d565b6000828154811061058457fe5b90600052602060002090600602016040518060c0016040529081600082015481526020016001820160009054906101000a90046001600160a01b03166001600160a01b03166001600160a01b03168152602001600282015481526020016003820160009054906101000a900460ff1660018111156105fe57fe5b600181111561060957fe5b81526004820154602082015260059091015460ff1615156040918201528151908201516060830151608090930151919b909a509198509650945050505050565b6000806000806000600b868154811061065e57fe5b60009182526020909120600590910201600181015460028201546003830154600490930154919960ff90911698509196506001600160a01b0316945092505050565b6001600160a01b03841660009081526001602052604090205484906106d75760405162461bcd60e51b815260040161054d90611de1565b336000818152600460205260409020546107035760405162461bcd60e51b815260040161054d906120ef565b61070b61173d565b6001600160a01b0387166000908152600160205260408120548154811061072e57fe5b90600052602060002090600602016040518060c0016040529081600082015481526020016001820160009054906101000a90046001600160a01b03166001600160a01b03166001600160a01b03168152602001600282015481526020016003820160009054906101000a900460ff1660018111156107a857fe5b60018111156107b357fe5b81526004820154602082015260059091015460ff16151560409091015290506107da611773565b336000908152600460205260409020546003805490919081106107f957fe5b600091825260208083206040805160c08101825260069094029091018054845260018101546001600160a01b031684840152600281018054835181860281018601855281815295969295938701949192909184015b828210156108f95760008481526020908190208301805460408051601f60026000196101006001871615020190941693909304928301859004850281018501909152818152928301828280156108e55780601f106108ba576101008083540402835291602001916108e5565b820191906000526020600020905b8154815290600101906020018083116108c857829003601f168201915b50505050508152602001906001019061084e565b50505050815260200160038201805480602002602001604051908101604052809291908181526020016000905b828210156109d15760008481526020908190208301805460408051601f60026000196101006001871615020190941693909304928301859004850281018501909152818152928301828280156109bd5780601f10610992576101008083540402835291602001916109bd565b820191906000526020600020905b8154815290600101906020018083116109a057829003601f168201915b505050505081526020019060010190610926565b505050908252506004820154602082015260059091015460ff1615156040909101529050600182606001516001811115610a0757fe5b1415610a6d5781608001513414610a305760405162461bcd60e51b815260040161054d90611f1e565b60208201516040516001600160a01b03909116903480156108fc02916000818181858888f19350505050158015610a6b573d6000803e3d6000fd5b505b6000805b826040015151811015610ab157610a9f8984604001518381518110610a9257fe5b60200260200101516110c0565b15610aa957600191505b600101610a71565b5080610b20576000875111610ad85760405162461bcd60e51b815260040161054d90611fd8565b604082015180518991906000198101908110610af057fe5b602002602001018190525086826060015160018460600151510381518110610b1457fe5b60200260200101819052505b600a80546001019055610b316117b4565b600a548152825160208083019182523460408401908152606084018c8152608085018b9052600360a0860152600680546001810182556000829052865191027ff652222313e28459528d920b65115c16c04f3efc82aaedc97be59f3f377c0d3f810191825594517ff652222313e28459528d920b65115c16c04f3efc82aaedc97be59f3f377c0d4086015591517ff652222313e28459528d920b65115c16c04f3efc82aaedc97be59f3f377c0d4185015551805185949293610c17937ff652222313e28459528d920b65115c16c04f3efc82aaedc97be59f3f377c0d42019201906117f4565b5060808201518051610c339160048401916020909101906117f4565b5060a082015160058201805460ff19166001836003811115610c5157fe5b02179055505083516000908152600760209081526040808320600a80548254600181810185559387528587200155895185526008845282852081548154938401825590865284862090920191909155543384526009909252918290209151909250610cbd908c90611ce8565b9081526020016040518091039020819055507f7f255cd00560748779eeea802e9fe4a6e69da4f2b9d5831723f9f51704807c7b836020015185602001518b604051610d0a93929190611d18565b60405180910390a150505050505050505050565b3360008181526004602052604090205415610d4b5760405162461bcd60e51b815260040161054d90612092565b8151835114610d6c5760405162461bcd60e51b815260040161054d90611f7b565b600580546001908101918290556040805160c0810182529283523360208085019182529184018781526060850187905260006080860181905260a08601859052600380549586018155905284517fc2575a0e9e593c00f959f8c92f12db2869c3395a3b0502d05e2516446f71f85b600690950294850190815591517fc2575a0e9e593c00f959f8c92f12db2869c3395a3b0502d05e2516446f71f85c8501805473ffffffffffffffffffffffffffffffffffffffff19166001600160a01b039092169190911790555180519193610e6a937fc2575a0e9e593c00f959f8c92f12db2869c3395a3b0502d05e2516446f71f85d90910192910190611872565b5060608201518051610e86916003840191602090910190611872565b50608082015160048281019190915560a0909201516005918201805460ff1916911515919091179055543360008181526020939093526040928390209190915590517fb5029158193ef244bae9269b27d7e5a5d08e857bb6603871e122ea77359c78d791610ef391611d04565b60405180910390a1505050565b3360008181526001602052604090205415610f2d5760405162461bcd60e51b815260040161054d90612035565b6000836001811115610f3b57fe5b148015610f46575081155b80610f6757506001836001811115610f5a57fe5b148015610f675750600082115b610f835760405162461bcd60e51b815260040161054d90611e75565b600280546001908101918290556040805160c0810182529283523360208401526000908301819052919060608201908690811115610fbd57fe5b815260208082018690526001604092830181905284548082018655600095865294829020845160069096020194855590830151848201805473ffffffffffffffffffffffffffffffffffffffff19166001600160a01b0390921691909117905590820151600284015560608201516003840180549394939192909160ff191690838181111561104857fe5b02179055506080820151600482015560a0909101516005909101805460ff191691151591909117905560025433600081815260016020526040908190209290925590517fe366c1c0452ed8eec96861e9e54141ebff23c9ec89fe27b996b45f5ec388498791610ef391611d04565b6003546000190190565b6000816040516020016110d39190611ce8565b60405160208183030381529060405280519060200120836040516020016110fa9190611ce8565b604051602081830303815290604052805190602001201490505b92915050565b336000818152600160205260409020546111465760405162461bcd60e51b815260040161054d90611de1565b6001600160a01b038416600090815260046020526040902054849061117d5760405162461bcd60e51b815260040161054d906120ef565b6001600160a01b038516600090815260096020526040908190209051869186916111a8908390611ce8565b908152602001604051809103902054600014156111d75760405162461bcd60e51b815260040161054d90611e18565b6001600160a01b038716600090815260096020526040808220905160069190611201908a90611ce8565b9081526020016040518091039020548154811061121a57fe5b90600052602060002090600602019050858160050160006101000a81548160ff0219169083600381111561124a57fe5b0217905550600d8054600101908190556040805160a08101825291825282546020830152600b9190810188600381111561128057fe5b815242602080830191909152336040928301528354600181810186556000958652948290208451600590920201908155908301518185015590820151600282018054939492939192909160ff1916908360038111156112db57fe5b0217905550606082015160038201556080909101516004909101805473ffffffffffffffffffffffffffffffffffffffff19166001600160a01b0390921691909117905580546000908152600c602090815260408220600d548154600181018355918452918320015586600381111561135057fe5b141561139d576001600160a01b03881660009081526004602052604090205460038054909190811061137e57fe5b6000918252602090912060046006909202010180546001019055611438565b60018660038111156113ab57fe5b1480156113ef57506001600160a01b0388166000908152600460205260408120546003805490919081106113db57fe5b906000526020600020906006020160040154115b15611438576001600160a01b03881660009081526004602052604090205460038054909190811061141c57fe5b6000918252602090912060046006909202010180546000190190555b336000908152600160205260408120548154811061145257fe5b60009182526020909120600260069092020101805460010190556040517fc77b428ceee279931ee2abc0b71d4b852a5e7439af8221190c6c8adb6ad1a6c1906114a2908a9033908b908b90611d4d565b60405180910390a15050505050505050565b6001600160a01b0381166000908152600460205260408120546060908190839085906114f25760405162461bcd60e51b815260040161054d906120ef565b6001600160a01b038616600090815260046020526040902054611513611773565b6003828154811061152057fe5b600091825260208083206040805160c08101825260069094029091018054845260018101546001600160a01b031684840152600281018054835181860281018601855281815295969295938701949192909184015b828210156116205760008481526020908190208301805460408051601f600260001961010060018716150201909416939093049283018590048502810185019091528181529283018282801561160c5780601f106115e15761010080835404028352916020019161160c565b820191906000526020600020905b8154815290600101906020018083116115ef57829003601f168201915b505050505081526020019060010190611575565b50505050815260200160038201805480602002602001604051908101604052809291908181526020016000905b828210156116f85760008481526020908190208301805460408051601f60026000196101006001871615020190941693909304928301859004850281018501909152818152928301828280156116e45780601f106116b9576101008083540402835291602001916116e4565b820191906000526020600020905b8154815290600101906020018083116116c757829003601f168201915b50505050508152602001906001019061164d565b505050908252506004820154602082015260059091015460ff1615156040918201528151908201516060830151608090930151919b909a509198509650945050505050565b6040805160c081018252600080825260208201819052918101829052906060820190815260006020820181905260409091015290565b6040518060c001604052806000815260200160006001600160a01b031681526020016060815260200160608152602001600081526020016000151581525090565b6040518060c001604052806000815260200160008152602001600081526020016060815260200160608152602001600060038111156117ef57fe5b905290565b828054600181600116156101000203166002900490600052602060002090601f016020900481019282601f1061183557805160ff1916838001178555611862565b82800160010185558215611862579182015b82811115611862578251825591602001919060010190611847565b5061186e9291506118cb565b5090565b8280548282559060005260206000209081019282156118bf579160200282015b828111156118bf57825180516118af9184916020909101906117f4565b5091602001919060010190611892565b5061186e9291506118e5565b6102c291905b8082111561186e57600081556001016118d1565b6102c291905b8082111561186e5760006118ff8282611908565b506001016118eb565b50805460018160011615610100020316600290046000825580601f1061192e575061194c565b601f01602090049060005260206000209081019061194c91906118cb565b50565b80356001600160a01b038116811461111457600080fd5b600082601f830112611976578081fd5b813567ffffffffffffffff81111561198c578182fd5b602061199b8182840201612217565b828152925080830184820160005b848110156119d2576119c0888584358a01016119dd565b835291830191908301906001016119a9565b505050505092915050565b600082601f8301126119ed578081fd5b813567ffffffffffffffff811115611a03578182fd5b611a16601f8201601f1916602001612217565b9150808252836020828501011115611a2d57600080fd5b8060208401602084013760009082016020015292915050565b600060208284031215611a57578081fd5b611a61838361194f565b9392505050565b600080600060608486031215611a7c578182fd5b83356001600160a01b0381168114611a92578283fd5b9250602084013567ffffffffffffffff811115611aad578283fd5b611ab9868287016119dd565b925050604084013560048110611acd578182fd5b809150509250925092565b60008060008060808587031215611aed578081fd5b611af7868661194f565b9350602085013567ffffffffffffffff80821115611b13578283fd5b611b1f888389016119dd565b94506040870135915080821115611b34578283fd5b611b40888389016119dd565b93506060870135915080821115611b55578283fd5b50611b62878288016119dd565b91505092959194509250565b60008060408385031215611b80578182fd5b823567ffffffffffffffff80821115611b97578384fd5b611ba386838701611966565b93506020850135915080821115611bb8578283fd5b50611bc585828601611966565b9150509250929050565b60008060408385031215611be1578182fd5b823560028110611bef578283fd5b946020939093013593505050565b60008060408385031215611c0f578182fd5b823567ffffffffffffffff80821115611c26578384fd5b611c32868387016119dd565b93506020850135915080821115611c47578283fd5b50611bc5858286016119dd565b600060208284031215611c65578081fd5b5035919050565b6000815180845260208085019450848183028601828601855b85811015611caf578383038952611c9d838351611cbc565b98850198925090840190600101611c85565b5090979650505050505050565b60008151808452611cd4816020860160208601612249565b601f01601f19169290920160200192915050565b60008251611cfa818460208701612249565b9190910192915050565b6001600160a01b0391909116815260200190565b60006001600160a01b03808616835280851660208401525060606040830152611d446060830184611cbc565b95945050505050565b60006001600160a01b03808716835280861660208401525060806040830152611d796080830185611cbc565b9050611d848361223e565b606083015295945050505050565b6020808252825182820181905260009190848201906040850190845b81811015611dca57835183529284019291840191600101611dae565b50909695505050505050565b901515815260200190565b6020808252601f908201527f4964656e746974793a2076616c696461746f72206e6f74206578697374732100604082015260600190565b60208082526029908201527f4964656e746974793a206461746120746f2062652076616c6964617465206e6f60408201527f7420657869737473210000000000000000000000000000000000000000000000606082015260800190565b6020808252606a908201527f4964656e746974793a206966207374726174656779206973206368617267656460408201527f2c207072696365206d757374206265206772656174686572207468616e20302060608201527f6f7220737472617465677920466f7246726565207072696365206d757374206260808201527f6520657175616c2030210000000000000000000000000000000000000000000060a082015260c00190565b60208082526032908201527f4964656e746974793a2073656e6465642076616c7565206973206e6f7420746860408201527f652076616c696461746f72207072696365210000000000000000000000000000606082015260800190565b60208082526034908201527f4964656e746974793a206669656c647320616e642076616c756573206d75737460408201527f206265207468652073616d65206c656e67746821000000000000000000000000606082015260800190565b6020808252603b908201527f4964656e746974793a206669656c64206973206e6f7420696e20706572736f6e60408201527f61206669656c64732c2076616c75652069732072657175697265640000000000606082015260800190565b60208082526023908201527f4964656e746974793a2076616c696461746f7220616c7265616479206578697360408201527f7473210000000000000000000000000000000000000000000000000000000000606082015260800190565b60208082526021908201527f4964656e746974793a20706572736f6e6120616c72656164792065786973747360408201527f2100000000000000000000000000000000000000000000000000000000000000606082015260800190565b6020808252601d908201527f4964656e746974793a20706572736f6e61206e6f742065786973747321000000604082015260600190565b90815260200190565b6000858252608060208301526121486080830186611c6c565b828103604084015261215a8186611c6c565b91505082606083015295945050505050565b8481526080810161217c8561223e565b60208301528360408301526001600160a01b038316606083015295945050505050565b8481526020810184905260808101600284106121b757fe5b60408201939093526060015292915050565b600086825285602083015260a060408301526121e860a0830186611cbc565b82810360608401526121fa8186611cbc565b9150506004831061220757fe5b8260808301529695505050505050565b60405181810167ffffffffffffffff8111828210171561223657600080fd5b604052919050565b806004811061032357fe5b60005b8381101561226457818101518382015260200161224c565b83811115612273576000848401525b5050505056fea26469706673582212200cb87e0c9b7800191d807dd39cf1ce7f740da2ab4894535485a233639868af8564736f6c63430006070033",
  "immutableReferences": {},
  "source": "pragma solidity 0.6.7;\r\npragma experimental ABIEncoderV2;\r\n\r\nimport './Strings.sol';\r\n\r\ncontract Identity is Strings {\r\n    enum ValidationCostStrategy {\r\n        ForFree,\r\n        Charged\r\n    }\r\n\r\n    enum ValidationStatus {\r\n        Validated,\r\n        NotValidated,\r\n        CannotEvaluate,\r\n        ValidationPending\r\n    }\r\n\r\n    struct Validator {\r\n        uint validatorId;\r\n        address payable validatorAddress;\r\n        uint numberOfValidations;\r\n        ValidationCostStrategy strategy;\r\n        uint price;\r\n        bool exists;\r\n    }\r\n\r\n    struct Stamp {\r\n        uint idStamp;\r\n        uint idDataToBeValidated;\r\n        ValidationStatus status;\r\n        uint whenDate;\r\n        address addressValidator;\r\n    }\r\n\r\n    struct DataToBeValidated {\r\n        uint idDataToBeValidated;\r\n        uint idPersona;\r\n        uint price;\r\n        string field;\r\n        string ipfsPath;\r\n        ValidationStatus lastStatus;\r\n    }\r\n\r\n    struct Persona {\r\n        uint personaId;\r\n        address payable personaAddress;\r\n        string[] infoFields;\r\n        string[] infoValues;\r\n        uint score;\r\n        bool exists;\r\n    }\r\n\r\n    Validator[] private _validators;\r\n    mapping(address => uint) private _validatorsIndex;\r\n    uint private _validatorId;\r\n\r\n    Persona[] private _personas;\r\n    mapping(address => uint) private _personasIndex;\r\n    uint private _personaId;\r\n\r\n    DataToBeValidated[] private _validations;\r\n    mapping(uint => uint[]) private _personaIdDataToBeValidate;\r\n    mapping(uint => uint[]) private _validatorIdDataToBeValidate;\r\n    mapping(address => mapping(string => uint)) private _personaFieldValidate;\r\n    uint private _dataToBeValidatedId;\r\n\r\n    Stamp[] private _validationStamps;\r\n    mapping(uint => uint[]) private _dataToBeValidateStamps;\r\n    uint private _stampId;\r\n\r\n    event ValidatorAdded(\r\n        address validatorAddress\r\n    );\r\n\r\n    event PersonaAdded(\r\n        address personaAddress\r\n    );\r\n\r\n    event ValidateAdded(\r\n        address personaAddress,\r\n        address validateAddress,\r\n        string field\r\n    );\r\n\r\n    event Validated(\r\n        address personaAddress,\r\n        address validateAddress,\r\n        string field,\r\n        ValidationStatus validationStatus\r\n    );\r\n\r\n    modifier validatorExists(\r\n        address validatorAddress\r\n    )\r\n    {\r\n        require(\r\n            _validatorsIndex[validatorAddress] != 0,\r\n            'Identity: validator not exists!'\r\n        );\r\n        _;\r\n    }\r\n\r\n    modifier validatorNotExists(\r\n        address validatorAddress\r\n    )\r\n    {\r\n        require(\r\n            _validatorsIndex[validatorAddress] == 0,\r\n            'Identity: validator already exists!'\r\n        );\r\n        _;\r\n    }\r\n\r\n    modifier personaExists(\r\n        address personaAddress\r\n    )\r\n    {\r\n        require(\r\n            _personasIndex[personaAddress] != 0,\r\n            'Identity: persona not exists!'\r\n        );\r\n        _;\r\n    }\r\n\r\n    modifier personaNotExists(\r\n        address personaAddress\r\n    )\r\n    {\r\n        require(\r\n            _personasIndex[personaAddress] == 0,\r\n            'Identity: persona already exists!'\r\n        );\r\n        _;\r\n    }\r\n\r\n    modifier dataToBeValidateExists(\r\n        address personaAddress,\r\n        string memory field\r\n    )\r\n    {\r\n        require(\r\n            _personaFieldValidate[personaAddress][field] != 0,\r\n            'Identity: data to be validate not exists!'\r\n        );\r\n        _;\r\n    }\r\n\r\n    constructor() public\r\n    {\r\n        Validator memory validator;\r\n        _validators.push(\r\n            validator\r\n        );\r\n\r\n        Persona memory persona;\r\n        _personas.push(\r\n            persona\r\n        );\r\n\r\n        DataToBeValidated memory validation;\r\n        _validations.push(\r\n            validation\r\n        );\r\n\r\n        Stamp memory stamp;\r\n        _validationStamps.push(\r\n            stamp\r\n        );\r\n    }\r\n\r\n    function getValidatorByAddress(\r\n        address validatorAddress\r\n    ) public\r\n      view\r\n        validatorExists(validatorAddress)\r\n      returns(\r\n        uint validatorId,\r\n        uint numberOfValidations,\r\n        ValidationCostStrategy strategy,\r\n        uint price\r\n      )\r\n    {\r\n        uint index = _validatorsIndex[validatorAddress];\r\n        Validator memory validator = _validators[index];\r\n        return(\r\n            validator.validatorId,\r\n            validator.numberOfValidations,\r\n            validator.strategy,\r\n            validator.price\r\n        );\r\n    }\r\n\r\n    function addValidator(\r\n        ValidationCostStrategy validationCostStrategy,\r\n        uint price\r\n    ) public\r\n        validatorNotExists(msg.sender)\r\n    {\r\n        require(\r\n            validationCostStrategy == ValidationCostStrategy.ForFree &&\r\n            price == 0 ||\r\n            validationCostStrategy == ValidationCostStrategy.Charged &&\r\n            price > 0,\r\n            'Identity: if strategy is charged, price must be greather than 0 or strategy ForFree price must be equal 0!'\r\n        );\r\n\r\n        _validatorId++;\r\n\r\n        _validators.push(Validator(\r\n            _validatorId,\r\n            msg.sender,\r\n            0,\r\n            validationCostStrategy,\r\n            price,\r\n            true\r\n        ));\r\n\r\n        _validatorsIndex[msg.sender] = _validatorId;\r\n\r\n        emit ValidatorAdded(msg.sender);\r\n    }\r\n\r\n    function getTotalValidators(\r\n    ) public\r\n      view\r\n      returns(uint)\r\n    {\r\n        return _validators.length - 1;\r\n    }\r\n\r\n    function getPersonaByAddress(\r\n        address personaAddress\r\n    ) public\r\n      view\r\n        personaExists(personaAddress)\r\n      returns(\r\n        uint personaId,\r\n        string[] memory infoFields,\r\n        string[] memory infoValues,\r\n        uint score\r\n      )\r\n    {\r\n        uint index = _personasIndex[personaAddress];\r\n        Persona memory persona = _personas[index];\r\n        return(\r\n            persona.personaId,\r\n            persona.infoFields,\r\n            persona.infoValues,\r\n            persona.score\r\n        );\r\n    }\r\n\r\n    function addPersona(\r\n        string[] memory fields,\r\n        string[] memory values\r\n    ) public\r\n        personaNotExists(msg.sender)\r\n    {\r\n        require(\r\n            fields.length == values.length,\r\n            'Identity: fields and values must be the same length!'\r\n        );\r\n\r\n        _personaId++;\r\n\r\n        _personas.push(Persona(\r\n            _personaId,\r\n            msg.sender,\r\n            fields,\r\n            values,\r\n            0,\r\n            true\r\n        ));\r\n\r\n        _personasIndex[msg.sender] = _personaId;\r\n\r\n        emit PersonaAdded(msg.sender);\r\n    }\r\n\r\n    function getTotalPersonas(\r\n    ) public\r\n      view\r\n      returns(uint)\r\n    {\r\n        return _personas.length - 1;\r\n    }\r\n\r\n    function askToValidate(\r\n        address validatorAddress,\r\n        string memory field,\r\n        string memory value,\r\n        string memory ipfsHash\r\n    ) public\r\n      payable\r\n        validatorExists(validatorAddress)\r\n        personaExists(msg.sender)\r\n    {\r\n        Validator memory validator = _validators[_validatorsIndex[validatorAddress]];\r\n        Persona memory persona = _personas[_personasIndex[msg.sender]];\r\n\r\n        if(validator.strategy == ValidationCostStrategy.Charged){\r\n            require(\r\n                msg.value == validator.price,\r\n                'Identity: sended value is not the validator price!'\r\n            );\r\n            validator.validatorAddress.transfer(msg.value);\r\n        }\r\n\r\n        bool fieldExists = false;\r\n        for(uint i = 0; i < persona.infoFields.length; i++){\r\n            if(compareStringsbyBytes(field, persona.infoFields[i]))\r\n                fieldExists = true;\r\n        }\r\n\r\n        if(!fieldExists){\r\n            require(\r\n                bytes(value).length > 0,\r\n                'Identity: field is not in persona fields, value is required'\r\n            );\r\n            persona.infoFields[persona.infoFields.length - 1] = field;\r\n            persona.infoValues[persona.infoValues.length - 1] = value;\r\n        }\r\n\r\n        _dataToBeValidatedId++;\r\n\r\n        DataToBeValidated memory dataToBeValidated;\r\n        dataToBeValidated.idDataToBeValidated = _dataToBeValidatedId;\r\n        dataToBeValidated.idPersona = persona.personaId;\r\n        dataToBeValidated.price = msg.value;\r\n        dataToBeValidated.field = field;\r\n        dataToBeValidated.ipfsPath = ipfsHash;\r\n        dataToBeValidated.lastStatus = ValidationStatus.ValidationPending;\r\n\r\n        _validations.push(dataToBeValidated);\r\n\r\n        _personaIdDataToBeValidate[persona.personaId].push(_dataToBeValidatedId);\r\n        _validatorIdDataToBeValidate[validator.validatorId].push(_dataToBeValidatedId);\r\n        _personaFieldValidate[msg.sender][field] = _dataToBeValidatedId;\r\n\r\n        emit ValidateAdded(\r\n            persona.personaAddress,\r\n            validator.validatorAddress,\r\n            field\r\n        );\r\n    }\r\n\r\n    function validate(\r\n        address personaAddress,\r\n        string memory field,\r\n        ValidationStatus validationStatus\r\n    ) public\r\n      payable\r\n        validatorExists(msg.sender)\r\n        personaExists(personaAddress)\r\n        dataToBeValidateExists(personaAddress, field)\r\n    {\r\n        DataToBeValidated storage validation = _validations[_personaFieldValidate[personaAddress][field]];\r\n        validation.lastStatus = validationStatus;\r\n\r\n        _stampId++;\r\n        _validationStamps.push(Stamp(_stampId, validation.idDataToBeValidated, validationStatus, now, msg.sender));\r\n        _dataToBeValidateStamps[validation.idDataToBeValidated].push(_stampId);\r\n\r\n        if(validationStatus == ValidationStatus.Validated){\r\n            _personas[_personasIndex[personaAddress]].score++;\r\n        } else if(validationStatus == ValidationStatus.NotValidated && _personas[_personasIndex[personaAddress]].score > 0){\r\n            _personas[_personasIndex[personaAddress]].score--;\r\n        }\r\n\r\n        _validators[_validatorsIndex[msg.sender]].numberOfValidations++;\r\n\r\n        emit Validated(\r\n            personaAddress,\r\n            msg.sender,\r\n            field,\r\n            validationStatus\r\n        );\r\n    }\r\n\r\n    function getIdsDataToBeValidatedIdByPersonaId(\r\n        uint personaId\r\n    ) public\r\n      view\r\n      returns(\r\n        uint[] memory ids\r\n      )\r\n    {\r\n        return _personaIdDataToBeValidate[personaId];\r\n    }\r\n\r\n     function getDataToBeValidatedById(\r\n        uint dataToBeValidatedId\r\n    ) public\r\n      view\r\n      returns(\r\n        uint idPersona,\r\n        uint price,\r\n        string memory field,\r\n        string memory ipfsPath,\r\n        ValidationStatus lastStatus\r\n      )\r\n    {\r\n        DataToBeValidated storage data = _validations[dataToBeValidatedId];\r\n        return(\r\n            data.idPersona,\r\n            data.price,\r\n            data.field,\r\n            data.ipfsPath,\r\n            data.lastStatus\r\n        );\r\n    }\r\n\r\n    function getIdsStampsByDataToBeValidatedId(\r\n        uint dataToBeValidatedId\r\n    ) public\r\n      view\r\n      returns(\r\n        uint[] memory ids\r\n      )\r\n    {\r\n        return _dataToBeValidateStamps[dataToBeValidatedId];\r\n    }\r\n\r\n     function getStampById(\r\n        uint stampId\r\n    ) public\r\n      view\r\n      returns(\r\n        uint idDataToBeValidated,\r\n        ValidationStatus status,\r\n        uint whenDate,\r\n        address addressValidator\r\n      )\r\n    {\r\n        Stamp storage stamp = _validationStamps[stampId];\r\n        return(\r\n            stamp.idDataToBeValidated,\r\n            stamp.status,\r\n            stamp.whenDate,\r\n            stamp.addressValidator\r\n        );\r\n    }\r\n}",
  "sourcePath": "C:\\Files\\Repo\\Capivaracoders\\identity\\contracts\\Identity.sol",
  "compiler": {
    "name": "solc",
    "version": "0.6.7+commit.b8d736ae.Emscripten.clang"
  },
  "schemaVersion": "3.1.0",
  "updatedAt": "2020-05-09T02:03:49.478Z",
  "networkType": "ethereum",
  "devdoc": {
    "methods": {}
  },
  "userdoc": {
    "methods": {}
  }
}