{
  "contractName": "Identity",
  "abi": [
    {
      "inputs": [],
      "stateMutability": "nonpayable",
      "type": "constructor"
    },
    {
      "anonymous": false,
      "inputs": [
        {
          "indexed": false,
          "internalType": "address",
          "name": "personaAddress",
          "type": "address"
        }
      ],
      "name": "PersonaAdded",
      "type": "event"
    },
    {
      "anonymous": false,
      "inputs": [
        {
          "indexed": false,
          "internalType": "address",
          "name": "personaAddress",
          "type": "address"
        },
        {
          "indexed": false,
          "internalType": "address",
          "name": "validateAddress",
          "type": "address"
        },
        {
          "indexed": false,
          "internalType": "string",
          "name": "field",
          "type": "string"
        }
      ],
      "name": "ValidateAdded",
      "type": "event"
    },
    {
      "anonymous": false,
      "inputs": [
        {
          "indexed": false,
          "internalType": "address",
          "name": "personaAddress",
          "type": "address"
        },
        {
          "indexed": false,
          "internalType": "address",
          "name": "validateAddress",
          "type": "address"
        },
        {
          "indexed": false,
          "internalType": "string",
          "name": "field",
          "type": "string"
        },
        {
          "indexed": false,
          "internalType": "enum Identity.ValidationStatus",
          "name": "validationStatus",
          "type": "uint8"
        }
      ],
      "name": "Validated",
      "type": "event"
    },
    {
      "anonymous": false,
      "inputs": [
        {
          "indexed": false,
          "internalType": "address",
          "name": "validatorAddress",
          "type": "address"
        }
      ],
      "name": "ValidatorAdded",
      "type": "event"
    },
    {
      "anonymous": false,
      "inputs": [
        {
          "indexed": false,
          "internalType": "address",
          "name": "validatorAddress",
          "type": "address"
        }
      ],
      "name": "ValidatorDisabled",
      "type": "event"
    },
    {
      "anonymous": false,
      "inputs": [
        {
          "indexed": false,
          "internalType": "address",
          "name": "validatorAddress",
          "type": "address"
        }
      ],
      "name": "ValidatorReactivated",
      "type": "event"
    },
    {
      "inputs": [
        {
          "internalType": "string",
          "name": "s1",
          "type": "string"
        },
        {
          "internalType": "string",
          "name": "s2",
          "type": "string"
        }
      ],
      "name": "compareStringsbyBytes",
      "outputs": [
        {
          "internalType": "bool",
          "name": "",
          "type": "bool"
        }
      ],
      "stateMutability": "pure",
      "type": "function",
      "constant": true
    },
    {
      "inputs": [],
      "name": "isOwner",
      "outputs": [
        {
          "internalType": "bool",
          "name": "",
          "type": "bool"
        }
      ],
      "stateMutability": "view",
      "type": "function",
      "constant": true
    },
    {
      "inputs": [],
      "name": "owner",
      "outputs": [
        {
          "internalType": "address",
          "name": "",
          "type": "address"
        }
      ],
      "stateMutability": "view",
      "type": "function",
      "constant": true
    },
    {
      "inputs": [
        {
          "internalType": "address",
          "name": "validatorAddress",
          "type": "address"
        }
      ],
      "name": "isValidator",
      "outputs": [
        {
          "internalType": "bool",
          "name": "",
          "type": "bool"
        }
      ],
      "stateMutability": "view",
      "type": "function",
      "constant": true
    },
    {
      "inputs": [
        {
          "internalType": "address",
          "name": "validatorAddress",
          "type": "address"
        }
      ],
      "name": "getValidatorByAddress",
      "outputs": [
        {
          "internalType": "uint256",
          "name": "validatorId",
          "type": "uint256"
        },
        {
          "internalType": "uint256",
          "name": "numberOfValidations",
          "type": "uint256"
        },
        {
          "internalType": "enum Identity.ValidationCostStrategy",
          "name": "strategy",
          "type": "uint8"
        },
        {
          "internalType": "uint256",
          "name": "price",
          "type": "uint256"
        },
        {
          "internalType": "bool",
          "name": "active",
          "type": "bool"
        }
      ],
      "stateMutability": "view",
      "type": "function",
      "constant": true
    },
    {
      "inputs": [
        {
          "internalType": "enum Identity.ValidationCostStrategy",
          "name": "validationCostStrategy",
          "type": "uint8"
        },
        {
          "internalType": "uint256",
          "name": "price",
          "type": "uint256"
        }
      ],
      "name": "addValidator",
      "outputs": [],
      "stateMutability": "payable",
      "type": "function",
      "payable": true
    },
    {
      "inputs": [],
      "name": "disableValidator",
      "outputs": [],
      "stateMutability": "nonpayable",
      "type": "function"
    },
    {
      "inputs": [],
      "name": "reactivateValidator",
      "outputs": [],
      "stateMutability": "payable",
      "type": "function",
      "payable": true
    },
    {
      "inputs": [],
      "name": "getTotalValidators",
      "outputs": [
        {
          "internalType": "uint256",
          "name": "",
          "type": "uint256"
        }
      ],
      "stateMutability": "view",
      "type": "function",
      "constant": true
    },
    {
      "inputs": [
        {
          "internalType": "address",
          "name": "personaAddress",
          "type": "address"
        }
      ],
      "name": "getPersonaByAddress",
      "outputs": [
        {
          "internalType": "uint256",
          "name": "personaId",
          "type": "uint256"
        },
        {
          "internalType": "string[]",
          "name": "infoFields",
          "type": "string[]"
        },
        {
          "internalType": "string[]",
          "name": "infoValues",
          "type": "string[]"
        },
        {
          "internalType": "uint256",
          "name": "score",
          "type": "uint256"
        }
      ],
      "stateMutability": "view",
      "type": "function",
      "constant": true
    },
    {
      "inputs": [
        {
          "internalType": "string[]",
          "name": "fields",
          "type": "string[]"
        },
        {
          "internalType": "string[]",
          "name": "values",
          "type": "string[]"
        }
      ],
      "name": "addPersona",
      "outputs": [],
      "stateMutability": "nonpayable",
      "type": "function"
    },
    {
      "inputs": [],
      "name": "getTotalPersonas",
      "outputs": [
        {
          "internalType": "uint256",
          "name": "",
          "type": "uint256"
        }
      ],
      "stateMutability": "view",
      "type": "function",
      "constant": true
    },
    {
      "inputs": [
        {
          "internalType": "address",
          "name": "validatorAddress",
          "type": "address"
        },
        {
          "internalType": "string",
          "name": "field",
          "type": "string"
        },
        {
          "internalType": "string",
          "name": "value",
          "type": "string"
        },
        {
          "internalType": "string",
          "name": "ipfsHash",
          "type": "string"
        }
      ],
      "name": "askToValidate",
      "outputs": [],
      "stateMutability": "payable",
      "type": "function",
      "payable": true
    },
    {
      "inputs": [
        {
          "internalType": "address",
          "name": "personaAddress",
          "type": "address"
        },
        {
          "internalType": "string",
          "name": "field",
          "type": "string"
        },
        {
          "internalType": "enum Identity.ValidationStatus",
          "name": "validationStatus",
          "type": "uint8"
        }
      ],
      "name": "validate",
      "outputs": [],
      "stateMutability": "payable",
      "type": "function",
      "payable": true
    },
    {
      "inputs": [
        {
          "internalType": "uint256",
          "name": "validatorId",
          "type": "uint256"
        }
      ],
      "name": "getIdsDataToBeValidatedIdByValidatorId",
      "outputs": [
        {
          "internalType": "uint256[]",
          "name": "ids",
          "type": "uint256[]"
        }
      ],
      "stateMutability": "view",
      "type": "function",
      "constant": true
    },
    {
      "inputs": [
        {
          "internalType": "uint256",
          "name": "personaId",
          "type": "uint256"
        }
      ],
      "name": "getIdsDataToBeValidatedIdByPersonaId",
      "outputs": [
        {
          "internalType": "uint256[]",
          "name": "ids",
          "type": "uint256[]"
        }
      ],
      "stateMutability": "view",
      "type": "function",
      "constant": true
    },
    {
      "inputs": [
        {
          "internalType": "uint256",
          "name": "dataToBeValidatedId",
          "type": "uint256"
        }
      ],
      "name": "getDataToBeValidatedById",
      "outputs": [
        {
          "internalType": "uint256",
          "name": "idPersona",
          "type": "uint256"
        },
        {
          "internalType": "uint256",
          "name": "price",
          "type": "uint256"
        },
        {
          "internalType": "string",
          "name": "field",
          "type": "string"
        },
        {
          "internalType": "string",
          "name": "ipfsPath",
          "type": "string"
        },
        {
          "internalType": "enum Identity.ValidationStatus",
          "name": "lastStatus",
          "type": "uint8"
        }
      ],
      "stateMutability": "view",
      "type": "function",
      "constant": true
    },
    {
      "inputs": [
        {
          "internalType": "uint256",
          "name": "dataToBeValidatedId",
          "type": "uint256"
        }
      ],
      "name": "getIdsStampsByDataToBeValidatedId",
      "outputs": [
        {
          "internalType": "uint256[]",
          "name": "ids",
          "type": "uint256[]"
        }
      ],
      "stateMutability": "view",
      "type": "function",
      "constant": true
    },
    {
      "inputs": [
        {
          "internalType": "uint256",
          "name": "stampId",
          "type": "uint256"
        }
      ],
      "name": "getStampById",
      "outputs": [
        {
          "internalType": "uint256",
          "name": "idDataToBeValidated",
          "type": "uint256"
        },
        {
          "internalType": "enum Identity.ValidationStatus",
          "name": "status",
          "type": "uint8"
        },
        {
          "internalType": "uint256",
          "name": "whenDate",
          "type": "uint256"
        },
        {
          "internalType": "address",
          "name": "addressValidator",
          "type": "address"
        }
      ],
      "stateMutability": "view",
      "type": "function",
      "constant": true
    },
    {
      "inputs": [],
      "name": "getStakedValue",
      "outputs": [
        {
          "internalType": "uint256",
          "name": "",
          "type": "uint256"
        }
      ],
      "stateMutability": "view",
      "type": "function",
      "constant": true
    }
  ],
  "bytecode": "0x60806040523480156200001157600080fd5b50600080546001600160a01b031916331790556200002e62000475565b6001805480820182556000829052825160069091027fb10e2d527612073b26eecdfd717e6a320cf44b4afac2b0732d9fcbe2b7fa0cf6810191825560208401517fb10e2d527612073b26eecdfd717e6a320cf44b4afac2b0732d9fcbe2b7fa0cf7820180546001600160a01b039092166001600160a01b031990921691909117905560408401517fb10e2d527612073b26eecdfd717e6a320cf44b4afac2b0732d9fcbe2b7fa0cf882015560608401517fb10e2d527612073b26eecdfd717e6a320cf44b4afac2b0732d9fcbe2b7fa0cf99091018054859460ff199091169083818111156200011957fe5b02179055506080820151600482015560a08201516005909101805460c09093015115156101000261ff001992151560ff19909416939093179190911691909117905562000165620004b2565b6004805460018101825560009190915281517f8a35acfbc15ff81a39ae7d344fd709f28e8600b4aa8c65c6b64bfe7fe36bd19b60069092029182019081556020808401517f8a35acfbc15ff81a39ae7d344fd709f28e8600b4aa8c65c6b64bfe7fe36bd19c840180546001600160a01b0319166001600160a01b0390921691909117905560408401518051859462000224937f8a35acfbc15ff81a39ae7d344fd709f28e8600b4aa8c65c6b64bfe7fe36bd19d909101920190620004f3565b506060820151805162000242916003840191602090910190620004f3565b506080820151600482015560a0909101516005909101805460ff19169115159190911790556200027162000557565b60078054600181018255600091909152815160069091027fa66cc928b5edb82af9bd49922954155ab7b0942694bea4ce44661d9a8736c68881019182556020808401517fa66cc928b5edb82af9bd49922954155ab7b0942694bea4ce44661d9a8736c68983015560408401517fa66cc928b5edb82af9bd49922954155ab7b0942694bea4ce44661d9a8736c68a830155606084015180518594936200033d937fa66cc928b5edb82af9bd49922954155ab7b0942694bea4ce44661d9a8736c68b90910192019062000598565b50608082015180516200035b91600484019160209091019062000598565b5060a082015160058201805460ff191660018360038111156200037a57fe5b021790555050506200038b62000619565b600c805460018181018355600092909252825160059091027fdf6966c971051c3d54ec59162606531493a51404a002842f56009d7e5cf4a8c7810191825560208401517fdf6966c971051c3d54ec59162606531493a51404a002842f56009d7e5cf4a8c882015560408401517fdf6966c971051c3d54ec59162606531493a51404a002842f56009d7e5cf4a8c99091018054859460ff19909116908360038111156200043357fe5b021790555060608201516003820155608090910151600490910180546001600160a01b0319166001600160a01b0390921691909117905550620006e792505050565b6040805160e08101825260008082526020820181905291810182905290606082019081526000602082018190526040820181905260609091015290565b6040518060c001604052806000815260200160006001600160a01b031681526020016060815260200160608152602001600081526020016000151581525090565b82805482825590600052602060002090810192821562000545579160200282015b828111156200054557825180516200053491849160209091019062000598565b509160200191906001019062000514565b506200055392915062000654565b5090565b6040518060c001604052806000815260200160008152602001600081526020016060815260200160608152602001600060038111156200059357fe5b905290565b828054600181600116156101000203166002900490600052602060002090601f016020900481019282601f10620005db57805160ff19168380011785556200060b565b828001600101855582156200060b579182015b828111156200060b578251825591602001919060010190620005ee565b50620005539291506200067f565b6040518060a001604052806000815260200160008152602001600060038111156200064057fe5b815260006020820181905260409091015290565b6200067c91905b80821115620005535760006200067282826200069c565b506001016200065b565b90565b6200067c91905b8082111562000553576000815560010162000686565b50805460018160011615610100020316600290046000825580601f10620006c45750620006e4565b601f016020900490600052602060002090810190620006e491906200067f565b50565b6128d080620006f76000396000f3fe60806040526004361061015f5760003560e01c8063a5f2098b116100c0578063db8351a511610074578063ec785db211610059578063ec785db214610381578063f43b359214610394578063facd743b146103c45761015f565b8063db8351a51461034c578063e9a734ff146103615761015f565b8063b09726ae116100a5578063b09726ae14610306578063b8d2ca1c14610319578063cbe93933146103395761015f565b8063a5f2098b146102dc578063a7ef7082146102f15761015f565b8063630fc14711610117578063853aa1c9116100fc578063853aa1c9146102685780638da5cb5b146102985780638f32d59b146102ba5761015f565b8063630fc14714610217578063839bbf66146102485761015f565b80633076e3e4116101485780633076e3e4146101995780634b672785146101c657806354f34b1b146101e65761015f565b806326574c8514610164578063295912df1461016e575b600080fd5b61016c6103e4565b005b34801561017a57600080fd5b5061018361051e565b604051610190919061273c565b60405180910390f35b3480156101a557600080fd5b506101b96101b436600461213d565b610529565b6040516101909190612282565b3480156101d257600080fd5b506101b96101e136600461213d565b61058b565b3480156101f257600080fd5b5061020661020136600461213d565b6105eb565b6040516101909594939291906127ec565b34801561022357600080fd5b50610237610232366004611f2f565b610773565b6040516101909594939291906127b6565b34801561025457600080fd5b506101b961026336600461213d565b6108c0565b34801561027457600080fd5b5061028861028336600461213d565b610920565b6040516101909493929190612782565b3480156102a457600080fd5b506102ad610977565b60405161019091906121f3565b3480156102c657600080fd5b506102cf610986565b60405161019091906122c6565b3480156102e857600080fd5b5061016c610997565b3480156102fd57600080fd5b50610183610adb565b61016c610314366004611fc1565b610b06565b34801561032557600080fd5b5061016c610334366004612057565b61119d565b61016c6103473660046120b8565b61137d565b34801561035857600080fd5b50610183611576565b34801561036d57600080fd5b506102cf61037c3660046120e6565b611580565b61016c61038f366004611f51565b6115da565b3480156103a057600080fd5b506103b46103af366004611f2f565b611979565b6040516101909493929190612745565b3480156103d057600080fd5b506102cf6103df366004611f2f565b611c02565b34670de0b6b3a7640000146104145760405162461bcd60e51b815260040161040b9061233f565b60405180910390fd5b336000818152600260205260409020546104405760405162461bcd60e51b815260040161040b90612308565b33600090815260026020526040902054600180548290811061045e57fe5b906000526020600020906006020160050160019054906101000a900460ff161561049a5760405162461bcd60e51b815260040161040b906122d1565b33600090815260026020526040902054600180548190839081106104ba57fe5b906000526020600020906006020160050160016101000a81548160ff0219169083151502179055507f65cf6d2b9cf96b1ffffa32041ec7c360f76b05f5f4f5e13c7f19495246d6f4f43360405161051191906121f3565b60405180910390a1505050565b600154600019015b90565b60008181526008602090815260409182902080548351818402810184019094528084526060939283018282801561057f57602002820191906000526020600020905b81548152602001906001019080831161056b575b50505050509050919050565b6000818152600d602090815260409182902080548351818402810184019094528084526060939283018282801561057f576020028201919060005260206000209081548152602001906001019080831161056b5750505050509050919050565b6000806060806000806007878154811061060157fe5b906000526020600020906006020190508060010154816002015482600301836004018460050160009054906101000a900460ff16828054600181600116156101000203166002900480601f0160208091040260200160405190810160405280929190818152602001828054600181600116156101000203166002900480156106ca5780601f1061069f576101008083540402835291602001916106ca565b820191906000526020600020905b8154815290600101906020018083116106ad57829003601f168201915b5050855460408051602060026001851615610100026000190190941693909304601f8101849004840282018401909252818152959850879450925084019050828280156107585780601f1061072d57610100808354040283529160200191610758565b820191906000526020600020905b81548152906001019060200180831161073b57829003601f168201915b50505050509150955095509550955095505091939590929450565b6001600160a01b038116600090815260026020526040812054819081908190819086906107b25760405162461bcd60e51b815260040161040b90612308565b6001600160a01b0387166000908152600260205260409020546107d3611c1f565b600182815481106107e057fe5b90600052602060002090600602016040518060e0016040529081600082015481526020016001820160009054906101000a90046001600160a01b03166001600160a01b03166001600160a01b03168152602001600282015481526020016003820160009054906101000a900460ff16600181111561085a57fe5b600181111561086557fe5b81526004820154602082015260059091015460ff808216151560408085019190915261010090920416151560609283015282519083015191830151608084015160c090940151919d929c509a50919850909650945050505050565b60008181526009602090815260409182902080548351818402810184019094528084526060939283018282801561057f576020028201919060005260206000209081548152602001906001019080831161056b5750505050509050919050565b6000806000806000600c868154811061093557fe5b60009182526020909120600590910201600181015460028201546003830154600490930154919960ff90911698509196506001600160a01b0316945092505050565b6000546001600160a01b031690565b6000546001600160a01b0316331490565b336000818152600260205260409020546109c35760405162461bcd60e51b815260040161040b90612308565b3360009081526002602052604090205460018054829081106109e157fe5b906000526020600020906006020160050160019054906101000a900460ff16610a1c5760405162461bcd60e51b815260040161040b90612591565b336000818152600260205260408120546001805491929183908110610a3d57fe5b60009182526020822060056006909202010180549215156101000261ff0019909316929092179091556040516001600160a01b0384169190670de0b6b3a76400009082818181858883f19350505050158015610a9d573d6000803e3d6000fd5b507f4a256c78e75abb74281b1b470fc334b6e7a188cf23e9f81caf025a3f4397b9d833604051610acd91906121f3565b60405180910390a150505050565b6000610ae5610986565b610b015760405162461bcd60e51b815260040161040b9061255c565b504790565b6001600160a01b0384166000908152600260205260409020548490610b3d5760405162461bcd60e51b815260040161040b90612308565b33600081815260056020526040902054610b695760405162461bcd60e51b815260040161040b90612705565b610b71611c1f565b6001600160a01b038716600090815260026020526040902054600180549091908110610b9957fe5b90600052602060002090600602016040518060e0016040529081600082015481526020016001820160009054906101000a90046001600160a01b03166001600160a01b03166001600160a01b03168152602001600282015481526020016003820160009054906101000a900460ff166001811115610c1357fe5b6001811115610c1e57fe5b81526004820154602082015260059091015460ff808216151560408401526101009091041615156060909101529050610c55611c5c565b33600090815260056020526040902054600480549091908110610c7457fe5b600091825260208083206040805160c08101825260069094029091018054845260018101546001600160a01b031684840152600281018054835181860281018601855281815295969295938701949192909184015b82821015610d745760008481526020908190208301805460408051601f6002600019610100600187161502019094169390930492830185900485028101850190915281815292830182828015610d605780601f10610d3557610100808354040283529160200191610d60565b820191906000526020600020905b815481529060010190602001808311610d4357829003601f168201915b505050505081526020019060010190610cc9565b50505050815260200160038201805480602002602001604051908101604052809291908181526020016000905b82821015610e4c5760008481526020908190208301805460408051601f6002600019610100600187161502019094169390930492830185900485028101850190915281815292830182828015610e385780601f10610e0d57610100808354040283529160200191610e38565b820191906000526020600020905b815481529060010190602001808311610e1b57829003601f168201915b505050505081526020019060010190610da1565b505050908252506004820154602082015260059091015460ff1615156040909101529050600182606001516001811115610e8257fe5b1415610ee85781608001513414610eab5760405162461bcd60e51b815260040161040b906124a2565b60208201516040516001600160a01b03909116903480156108fc02916000818181858888f19350505050158015610ee6573d6000803e3d6000fd5b505b6000805b826040015151811015610f2c57610f1a8984604001518381518110610f0d57fe5b6020026020010151611580565b15610f2457600191505b600101610eec565b5080610f9b576000875111610f535760405162461bcd60e51b815260040161040b906125ee565b604082015180518991906000198101908110610f6b57fe5b602002602001018190525086826060015160018460600151510381518110610f8f57fe5b60200260200101819052505b600b80546001019055610fac611c9d565b600b548152825160208083019182523460408401908152606084018c8152608085018b9052600360a08601526007805460018101825560009190915285517fa66cc928b5edb82af9bd49922954155ab7b0942694bea4ce44661d9a8736c688600690920291820190815594517fa66cc928b5edb82af9bd49922954155ab7b0942694bea4ce44661d9a8736c68982015591517fa66cc928b5edb82af9bd49922954155ab7b0942694bea4ce44661d9a8736c68a830155518051859493611096937fa66cc928b5edb82af9bd49922954155ab7b0942694bea4ce44661d9a8736c68b01920190611cdd565b50608082015180516110b2916004840191602090910190611cdd565b5060a082015160058201805460ff191660018360038111156110d057fe5b02179055505083516000908152600860209081526040808320600b8054825460018181018555938752858720015589518552600984528285208154815493840182559086528486209092019190915554338452600a90925291829020915190925061113c908c906121d7565b9081526020016040518091039020819055507f7f255cd00560748779eeea802e9fe4a6e69da4f2b9d5831723f9f51704807c7b836020015185602001518b60405161118993929190612207565b60405180910390a150505050505050505050565b33600090815260056020526040902054156111ca5760405162461bcd60e51b815260040161040b906126a8565b80518251146111eb5760405162461bcd60e51b815260040161040b906124ff565b6006805460019081018083556040805160c0810182529182523360208084019182529183018781526060840187905260006080850181905260a08501869052600480549687018155905283517f8a35acfbc15ff81a39ae7d344fd709f28e8600b4aa8c65c6b64bfe7fe36bd19b9590960294850195865590517f8a35acfbc15ff81a39ae7d344fd709f28e8600b4aa8c65c6b64bfe7fe36bd19c8501805473ffffffffffffffffffffffffffffffffffffffff19166001600160a01b039092169190911790555180519294936112ea937f8a35acfbc15ff81a39ae7d344fd709f28e8600b4aa8c65c6b64bfe7fe36bd19d909101929190910190611d5b565b5060608201518051611306916003840191602090910190611d5b565b506080820151600482015560a0909101516005918201805460ff19169115159190911790556006543360008181526020939093526040928390209190915590517fb5029158193ef244bae9269b27d7e5a5d08e857bb6603871e122ea77359c78d791611371916121f3565b60405180910390a15050565b34670de0b6b3a7640000146113a45760405162461bcd60e51b815260040161040b9061233f565b33600090815260026020526040902054156113d15760405162461bcd60e51b815260040161040b9061264b565b60008260018111156113df57fe5b1480156113ea575080155b8061140b575060018260018111156113fe57fe5b14801561140b5750600081115b6114275760405162461bcd60e51b815260040161040b906123f9565b600380546001908101918290556040805160e0810182529283523360208401526000908301529060608101848381111561145d57fe5b8152602080820185905260016040808401829052606093840182905285548083018755600096875295839020855160069097020195865591840151858201805473ffffffffffffffffffffffffffffffffffffffff19166001600160a01b03909216919091179055908301516002850155908201516003840180549394939192909160ff19169083818111156114ef57fe5b02179055506080820151600482015560a08201516005909101805460c09093015115156101000261ff001992151560ff19909416939093179190911691909117905560035433600081815260026020526040908190209290925590517fe366c1c0452ed8eec96861e9e54141ebff23c9ec89fe27b996b45f5ec388498791611371916121f3565b6004546000190190565b60008160405160200161159391906121d7565b60405160208183030381529060405280519060200120836040516020016115ba91906121d7565b604051602081830303815290604052805190602001201490505b92915050565b336000818152600260205260409020546116065760405162461bcd60e51b815260040161040b90612308565b6001600160a01b038416600090815260056020526040902054849061163d5760405162461bcd60e51b815260040161040b90612705565b6001600160a01b0385166000908152600a6020526040908190209051869186916116689083906121d7565b908152602001604051809103902054600014156116975760405162461bcd60e51b815260040161040b9061239c565b6001600160a01b0387166000908152600a60205260408082209051600791906116c1908a906121d7565b908152602001604051809103902054815481106116da57fe5b90600052602060002090600602019050858160050160006101000a81548160ff0219169083600381111561170a57fe5b0217905550600e8054600101908190556040805160a08101825291825282546020830152600c9190810188600381111561174057fe5b815242602080830191909152336040928301528354600181810186556000958652948290208451600590920201908155908301518185015590820151600282018054939492939192909160ff19169083600381111561179b57fe5b0217905550606082015160038201556080909101516004909101805473ffffffffffffffffffffffffffffffffffffffff19166001600160a01b0390921691909117905580546000908152600d602090815260408220600e548154600181018355918452918320015586600381111561181057fe5b141561185d576001600160a01b03881660009081526005602052604090205460048054909190811061183e57fe5b60009182526020909120600460069092020101805460010190556118f8565b600186600381111561186b57fe5b1480156118af57506001600160a01b03881660009081526005602052604081205460048054909190811061189b57fe5b906000526020600020906006020160040154115b156118f8576001600160a01b0388166000908152600560205260409020546004805490919081106118dc57fe5b6000918252602090912060046006909202010180546000190190555b3360009081526002602052604090205460018054909190811061191757fe5b60009182526020909120600260069092020101805460010190556040517fc77b428ceee279931ee2abc0b71d4b852a5e7439af8221190c6c8adb6ad1a6c190611967908a9033908b908b9061223c565b60405180910390a15050505050505050565b6001600160a01b0381166000908152600560205260408120546060908190839085906119b75760405162461bcd60e51b815260040161040b90612705565b6001600160a01b0386166000908152600560205260409020546119d8611c5c565b600482815481106119e557fe5b600091825260208083206040805160c08101825260069094029091018054845260018101546001600160a01b031684840152600281018054835181860281018601855281815295969295938701949192909184015b82821015611ae55760008481526020908190208301805460408051601f6002600019610100600187161502019094169390930492830185900485028101850190915281815292830182828015611ad15780601f10611aa657610100808354040283529160200191611ad1565b820191906000526020600020905b815481529060010190602001808311611ab457829003601f168201915b505050505081526020019060010190611a3a565b50505050815260200160038201805480602002602001604051908101604052809291908181526020016000905b82821015611bbd5760008481526020908190208301805460408051601f6002600019610100600187161502019094169390930492830185900485028101850190915281815292830182828015611ba95780601f10611b7e57610100808354040283529160200191611ba9565b820191906000526020600020905b815481529060010190602001808311611b8c57829003601f168201915b505050505081526020019060010190611b12565b505050908252506004820154602082015260059091015460ff1615156040918201528151908201516060830151608090930151919b909a509198509650945050505050565b6001600160a01b0316600090815260026020526040902054151590565b6040805160e08101825260008082526020820181905291810182905290606082019081526000602082018190526040820181905260609091015290565b6040518060c001604052806000815260200160006001600160a01b031681526020016060815260200160608152602001600081526020016000151581525090565b6040518060c00160405280600081526020016000815260200160008152602001606081526020016060815260200160006003811115611cd857fe5b905290565b828054600181600116156101000203166002900490600052602060002090601f016020900481019282601f10611d1e57805160ff1916838001178555611d4b565b82800160010185558215611d4b579182015b82811115611d4b578251825591602001919060010190611d30565b50611d57929150611db4565b5090565b828054828255906000526020600020908101928215611da8579160200282015b82811115611da85782518051611d98918491602090910190611cdd565b5091602001919060010190611d7b565b50611d57929150611dce565b61052691905b80821115611d575760008155600101611dba565b61052691905b80821115611d57576000611de88282611df1565b50600101611dd4565b50805460018160011615610100020316600290046000825580601f10611e175750611e35565b601f016020900490600052602060002090810190611e359190611db4565b50565b80356001600160a01b03811681146115d457600080fd5b600082601f830112611e5f578081fd5b813567ffffffffffffffff811115611e75578182fd5b6020611e848182840201612839565b828152925080830184820160005b84811015611ebb57611ea9888584358a0101611ec6565b83529183019190830190600101611e92565b505050505092915050565b600082601f830112611ed6578081fd5b813567ffffffffffffffff811115611eec578182fd5b611eff601f8201601f1916602001612839565b9150808252836020828501011115611f1657600080fd5b8060208401602084013760009082016020015292915050565b600060208284031215611f40578081fd5b611f4a8383611e38565b9392505050565b600080600060608486031215611f65578182fd5b83356001600160a01b0381168114611f7b578283fd5b9250602084013567ffffffffffffffff811115611f96578283fd5b611fa286828701611ec6565b925050604084013560048110611fb6578182fd5b809150509250925092565b60008060008060808587031215611fd6578081fd5b611fe08686611e38565b9350602085013567ffffffffffffffff80821115611ffc578283fd5b61200888838901611ec6565b9450604087013591508082111561201d578283fd5b61202988838901611ec6565b9350606087013591508082111561203e578283fd5b5061204b87828801611ec6565b91505092959194509250565b60008060408385031215612069578182fd5b823567ffffffffffffffff80821115612080578384fd5b61208c86838701611e4f565b935060208501359150808211156120a1578283fd5b506120ae85828601611e4f565b9150509250929050565b600080604083850312156120ca578182fd5b8235600281106120d8578283fd5b946020939093013593505050565b600080604083850312156120f8578182fd5b823567ffffffffffffffff8082111561210f578384fd5b61211b86838701611ec6565b93506020850135915080821115612130578283fd5b506120ae85828601611ec6565b60006020828403121561214e578081fd5b5035919050565b60008282518085526020808601955080818302840101818601855b8481101561219e57601f1986840301895261218c8383516121ab565b98840198925090830190600101612170565b5090979650505050505050565b600081518084526121c3816020860160208601612860565b601f01601f19169290920160200192915050565b600082516121e9818460208701612860565b9190910192915050565b6001600160a01b0391909116815260200190565b60006001600160a01b0380861683528085166020840152506060604083015261223360608301846121ab565b95945050505050565b60006001600160a01b0380871683528086166020840152506080604083015261226860808301856121ab565b905061227383612890565b82606083015295945050505050565b6020808252825182820181905260009190848201906040850190845b818110156122ba5783518352928401929184019160010161229e565b50909695505050505050565b901515815260200190565b6020808252601e908201527f4964656e746974793a2076616c696461746f7220697320616374697665210000604082015260600190565b6020808252601f908201527f4964656e746974793a2076616c696461746f72206e6f74206578697374732100604082015260600190565b60208082526030908201527f596f75206861766520746f20737465616b203120657468657220746f2062656360408201527f6f6d6520612076616c696461746f722100000000000000000000000000000000606082015260800190565b60208082526029908201527f4964656e746974793a206461746120746f2062652076616c6964617465206e6f60408201527f7420657869737473210000000000000000000000000000000000000000000000606082015260800190565b6020808252606a908201527f4964656e746974793a206966207374726174656779206973206368617267656460408201527f2c207072696365206d757374206265206772656174686572207468616e20302060608201527f6f7220737472617465677920466f7246726565207072696365206d757374206260808201527f6520657175616c2030210000000000000000000000000000000000000000000060a082015260c00190565b60208082526032908201527f4964656e746974793a2073656e6465642076616c7565206973206e6f7420746860408201527f652076616c696461746f72207072696365210000000000000000000000000000606082015260800190565b60208082526034908201527f4964656e746974793a206669656c647320616e642076616c756573206d75737460408201527f206265207468652073616d65206c656e67746821000000000000000000000000606082015260800190565b6020808252818101527f4f776e61626c653a2063616c6c6572206973206e6f7420746865206f776e6572604082015260600190565b60208082526022908201527f4964656e746974793a2076616c696461746f72206973206e6f7420616374697660408201527f6521000000000000000000000000000000000000000000000000000000000000606082015260800190565b6020808252603b908201527f4964656e746974793a206669656c64206973206e6f7420696e20706572736f6e60408201527f61206669656c64732c2076616c75652069732072657175697265640000000000606082015260800190565b60208082526023908201527f4964656e746974793a2076616c696461746f7220616c7265616479206578697360408201527f7473210000000000000000000000000000000000000000000000000000000000606082015260800190565b60208082526021908201527f4964656e746974793a20706572736f6e6120616c72656164792065786973747360408201527f2100000000000000000000000000000000000000000000000000000000000000606082015260800190565b6020808252601d908201527f4964656e746974793a20706572736f6e61206e6f742065786973747321000000604082015260600190565b90815260200190565b60008582526080602083015261275e6080830186612155565b82810360408401526127708186612155565b91505082606083015295945050505050565b8481526080810161279285612890565b8460208301528360408301526001600160a01b038316606083015295945050505050565b8581526020810185905260a08101600285106127ce57fe5b84604083015283606083015282151560808301529695505050505050565b600086825285602083015260a0604083015261280b60a08301866121ab565b828103606084015261281d81866121ab565b91505061282983612890565b8260808301529695505050505050565b60405181810167ffffffffffffffff8111828210171561285857600080fd5b604052919050565b60005b8381101561287b578181015183820152602001612863565b8381111561288a576000848401525b50505050565b60048110611e3557fefea2646970667358221220e90df729fa170e60079bcdffad9e20e799436dfeda355fa3c50e846df3ce554b64736f6c63430006070033",
  "immutableReferences": {},
  "source": "pragma solidity 0.6.7;\r\npragma experimental ABIEncoderV2;\r\n\r\nimport './ownership/Ownable.sol';\r\nimport './Strings.sol';\r\n\r\ncontract Identity is Ownable, Strings {\r\n    enum ValidationCostStrategy {\r\n        ForFree,\r\n        Charged\r\n    }\r\n\r\n    enum ValidationStatus {\r\n        Validated,\r\n        NotValidated,\r\n        CannotEvaluate,\r\n        ValidationPending\r\n    }\r\n\r\n    struct Validator {\r\n        uint validatorId;\r\n        address payable validatorAddress;\r\n        uint numberOfValidations;\r\n        ValidationCostStrategy strategy;\r\n        uint price;\r\n        bool exists;\r\n        bool active;\r\n    }\r\n\r\n    struct Stamp {\r\n        uint idStamp;\r\n        uint idDataToBeValidated;\r\n        ValidationStatus status;\r\n        uint whenDate;\r\n        address addressValidator;\r\n    }\r\n\r\n    struct DataToBeValidated {\r\n        uint idDataToBeValidated;\r\n        uint idPersona;\r\n        uint price;\r\n        string field;\r\n        string ipfsPath;\r\n        ValidationStatus lastStatus;\r\n    }\r\n\r\n    struct Persona {\r\n        uint personaId;\r\n        address payable personaAddress;\r\n        string[] infoFields;\r\n        string[] infoValues;\r\n        uint score;\r\n        bool exists;\r\n    }\r\n\r\n    Validator[] private _validators;\r\n    mapping(address => uint) private _validatorsIndex;\r\n    uint private _validatorId;\r\n\r\n    Persona[] private _personas;\r\n    mapping(address => uint) private _personasIndex;\r\n    uint private _personaId;\r\n\r\n    DataToBeValidated[] private _validations;\r\n    mapping(uint => uint[]) private _personaIdDataToBeValidate;\r\n    mapping(uint => uint[]) private _validatorIdDataToBeValidate;\r\n    mapping(address => mapping(string => uint)) private _personaFieldValidate;\r\n    uint private _dataToBeValidatedId;\r\n\r\n    Stamp[] private _validationStamps;\r\n    mapping(uint => uint[]) private _dataToBeValidateStamps;\r\n    uint private _stampId;\r\n\r\n    event ValidatorAdded(\r\n        address validatorAddress\r\n    );\r\n\r\n    event ValidatorDisabled(\r\n         address validatorAddress\r\n    );\r\n\r\n    event ValidatorReactivated(\r\n        address validatorAddress\r\n    );\r\n\r\n    event PersonaAdded(\r\n        address personaAddress\r\n    );\r\n\r\n    event ValidateAdded(\r\n        address personaAddress,\r\n        address validateAddress,\r\n        string field\r\n    );\r\n\r\n    event Validated(\r\n        address personaAddress,\r\n        address validateAddress,\r\n        string field,\r\n        ValidationStatus validationStatus\r\n    );\r\n\r\n    modifier validatorSendedStake(){\r\n         require(\r\n            msg.value == 1 ether,\r\n            'You have to steak 1 ether to become a validator!'\r\n        );\r\n        _;\r\n    }\r\n\r\n    modifier validatorExists(\r\n        address validatorAddress\r\n    )\r\n    {\r\n        require(\r\n            _validatorsIndex[validatorAddress] != 0,\r\n            'Identity: validator not exists!'\r\n        );\r\n        _;\r\n    }\r\n\r\n    modifier validatorIsActive(\r\n    )\r\n    {\r\n        uint index = _validatorsIndex[msg.sender];\r\n        require(\r\n            _validators[index].active,\r\n            'Identity: validator is not active!'\r\n        );\r\n        _;\r\n    }\r\n\r\n    modifier validatorIsNotActive(\r\n    )\r\n    {\r\n        uint index = _validatorsIndex[msg.sender];\r\n        require(\r\n            !_validators[index].active,\r\n            'Identity: validator is active!'\r\n        );\r\n        _;\r\n    }\r\n\r\n    modifier validatorNotExists(\r\n    )\r\n    {\r\n        require(\r\n            _validatorsIndex[msg.sender] == 0,\r\n            'Identity: validator already exists!'\r\n        );\r\n        _;\r\n    }\r\n\r\n    modifier personaExists(\r\n        address personaAddress\r\n    )\r\n    {\r\n        require(\r\n            _personasIndex[personaAddress] != 0,\r\n            'Identity: persona not exists!'\r\n        );\r\n        _;\r\n    }\r\n\r\n    modifier personaNotExists(\r\n    )\r\n    {\r\n        require(\r\n            _personasIndex[msg.sender] == 0,\r\n            'Identity: persona already exists!'\r\n        );\r\n        _;\r\n    }\r\n\r\n    modifier dataToBeValidateExists(\r\n        address personaAddress,\r\n        string memory field\r\n    )\r\n    {\r\n        require(\r\n            _personaFieldValidate[personaAddress][field] != 0,\r\n            'Identity: data to be validate not exists!'\r\n        );\r\n        _;\r\n    }\r\n\r\n    constructor() public\r\n    {\r\n        Validator memory validator;\r\n        _validators.push(\r\n            validator\r\n        );\r\n\r\n        Persona memory persona;\r\n        _personas.push(\r\n            persona\r\n        );\r\n\r\n        DataToBeValidated memory validation;\r\n        _validations.push(\r\n            validation\r\n        );\r\n\r\n        Stamp memory stamp;\r\n        _validationStamps.push(\r\n            stamp\r\n        );\r\n    }\r\n\r\n    function isValidator(\r\n        address validatorAddress\r\n    ) public\r\n      view\r\n      returns(bool)\r\n    {\r\n        return _validatorsIndex[validatorAddress] != 0;\r\n    }\r\n\r\n    function getValidatorByAddress(\r\n        address validatorAddress\r\n    ) public\r\n      view\r\n        validatorExists(validatorAddress)\r\n      returns(\r\n        uint validatorId,\r\n        uint numberOfValidations,\r\n        ValidationCostStrategy strategy,\r\n        uint price,\r\n        bool active\r\n      )\r\n    {\r\n        uint index = _validatorsIndex[validatorAddress];\r\n        Validator memory validator = _validators[index];\r\n        return(\r\n            validator.validatorId,\r\n            validator.numberOfValidations,\r\n            validator.strategy,\r\n            validator.price,\r\n            validator.active\r\n        );\r\n    }\r\n\r\n    function addValidator(\r\n        ValidationCostStrategy validationCostStrategy,\r\n        uint price\r\n    ) public\r\n      payable\r\n        validatorSendedStake()\r\n        validatorNotExists()\r\n    {\r\n        require(\r\n            validationCostStrategy == ValidationCostStrategy.ForFree &&\r\n            price == 0 ||\r\n            validationCostStrategy == ValidationCostStrategy.Charged &&\r\n            price > 0,\r\n            'Identity: if strategy is charged, price must be greather than 0 or strategy ForFree price must be equal 0!'\r\n        );\r\n\r\n        _validatorId++;\r\n\r\n        _validators.push(Validator(\r\n            _validatorId,\r\n            msg.sender,\r\n            0,\r\n            validationCostStrategy,\r\n            price,\r\n            true,\r\n            true\r\n        ));\r\n\r\n        _validatorsIndex[msg.sender] = _validatorId;\r\n\r\n        emit ValidatorAdded(msg.sender);\r\n    }\r\n\r\n    function disableValidator(\r\n    ) public\r\n        validatorExists(msg.sender)\r\n        validatorIsActive()\r\n    {\r\n        address payable recipient = msg.sender;\r\n\r\n        uint index = _validatorsIndex[msg.sender];\r\n        _validators[index].active = false;\r\n\r\n        recipient.transfer(1 ether);\r\n\r\n        emit ValidatorDisabled(msg.sender);\r\n    }\r\n\r\n    function reactivateValidator(\r\n    ) public\r\n      payable\r\n        validatorSendedStake()\r\n        validatorExists(msg.sender)\r\n        validatorIsNotActive()\r\n    {\r\n        uint index = _validatorsIndex[msg.sender];\r\n        _validators[index].active = true;\r\n\r\n        emit ValidatorReactivated(msg.sender);\r\n    }\r\n\r\n    function getTotalValidators(\r\n    ) public\r\n      view\r\n      returns(uint)\r\n    {\r\n        return _validators.length - 1;\r\n    }\r\n\r\n    function getPersonaByAddress(\r\n        address personaAddress\r\n    ) public\r\n      view\r\n        personaExists(personaAddress)\r\n      returns(\r\n        uint personaId,\r\n        string[] memory infoFields,\r\n        string[] memory infoValues,\r\n        uint score\r\n      )\r\n    {\r\n        uint index = _personasIndex[personaAddress];\r\n        Persona memory persona = _personas[index];\r\n        return(\r\n            persona.personaId,\r\n            persona.infoFields,\r\n            persona.infoValues,\r\n            persona.score\r\n        );\r\n    }\r\n\r\n    function addPersona(\r\n        string[] memory fields,\r\n        string[] memory values\r\n    ) public\r\n        personaNotExists()\r\n    {\r\n        require(\r\n            fields.length == values.length,\r\n            'Identity: fields and values must be the same length!'\r\n        );\r\n\r\n        _personaId++;\r\n\r\n        _personas.push(Persona(\r\n            _personaId,\r\n            msg.sender,\r\n            fields,\r\n            values,\r\n            0,\r\n            true\r\n        ));\r\n\r\n        _personasIndex[msg.sender] = _personaId;\r\n\r\n        emit PersonaAdded(msg.sender);\r\n    }\r\n\r\n    function getTotalPersonas(\r\n    ) public\r\n      view\r\n      returns(uint)\r\n    {\r\n        return _personas.length - 1;\r\n    }\r\n\r\n    function askToValidate(\r\n        address validatorAddress,\r\n        string memory field,\r\n        string memory value,\r\n        string memory ipfsHash\r\n    ) public\r\n      payable\r\n        validatorExists(validatorAddress)\r\n        personaExists(msg.sender)\r\n    {\r\n        Validator memory validator = _validators[_validatorsIndex[validatorAddress]];\r\n        Persona memory persona = _personas[_personasIndex[msg.sender]];\r\n\r\n        if(validator.strategy == ValidationCostStrategy.Charged){\r\n            require(\r\n                msg.value == validator.price,\r\n                'Identity: sended value is not the validator price!'\r\n            );\r\n            validator.validatorAddress.transfer(msg.value);\r\n        }\r\n\r\n        bool fieldExists = false;\r\n        for(uint i = 0; i < persona.infoFields.length; i++){\r\n            if(compareStringsbyBytes(field, persona.infoFields[i]))\r\n                fieldExists = true;\r\n        }\r\n\r\n        if(!fieldExists){\r\n            require(\r\n                bytes(value).length > 0,\r\n                'Identity: field is not in persona fields, value is required'\r\n            );\r\n            persona.infoFields[persona.infoFields.length - 1] = field;\r\n            persona.infoValues[persona.infoValues.length - 1] = value;\r\n        }\r\n\r\n        _dataToBeValidatedId++;\r\n\r\n        DataToBeValidated memory dataToBeValidated;\r\n        dataToBeValidated.idDataToBeValidated = _dataToBeValidatedId;\r\n        dataToBeValidated.idPersona = persona.personaId;\r\n        dataToBeValidated.price = msg.value;\r\n        dataToBeValidated.field = field;\r\n        dataToBeValidated.ipfsPath = ipfsHash;\r\n        dataToBeValidated.lastStatus = ValidationStatus.ValidationPending;\r\n\r\n        _validations.push(dataToBeValidated);\r\n\r\n        _personaIdDataToBeValidate[persona.personaId].push(_dataToBeValidatedId);\r\n        _validatorIdDataToBeValidate[validator.validatorId].push(_dataToBeValidatedId);\r\n        _personaFieldValidate[msg.sender][field] = _dataToBeValidatedId;\r\n\r\n        emit ValidateAdded(\r\n            persona.personaAddress,\r\n            validator.validatorAddress,\r\n            field\r\n        );\r\n    }\r\n\r\n    function validate(\r\n        address personaAddress,\r\n        string memory field,\r\n        ValidationStatus validationStatus\r\n    ) public\r\n      payable\r\n        validatorExists(msg.sender)\r\n        personaExists(personaAddress)\r\n        dataToBeValidateExists(personaAddress, field)\r\n    {\r\n        DataToBeValidated storage validation = _validations[_personaFieldValidate[personaAddress][field]];\r\n        validation.lastStatus = validationStatus;\r\n\r\n        _stampId++;\r\n        _validationStamps.push(Stamp(_stampId, validation.idDataToBeValidated, validationStatus, now, msg.sender));\r\n        _dataToBeValidateStamps[validation.idDataToBeValidated].push(_stampId);\r\n\r\n        if(validationStatus == ValidationStatus.Validated){\r\n            _personas[_personasIndex[personaAddress]].score++;\r\n        } else if(validationStatus == ValidationStatus.NotValidated && _personas[_personasIndex[personaAddress]].score > 0){\r\n            _personas[_personasIndex[personaAddress]].score--;\r\n        }\r\n\r\n        _validators[_validatorsIndex[msg.sender]].numberOfValidations++;\r\n\r\n        emit Validated(\r\n            personaAddress,\r\n            msg.sender,\r\n            field,\r\n            validationStatus\r\n        );\r\n    }\r\n\r\n    function getIdsDataToBeValidatedIdByValidatorId(\r\n        uint validatorId\r\n    ) public\r\n      view\r\n      returns(\r\n        uint[] memory ids\r\n      )\r\n    {\r\n        return _validatorIdDataToBeValidate[validatorId];\r\n    }\r\n\r\n    function getIdsDataToBeValidatedIdByPersonaId(\r\n        uint personaId\r\n    ) public\r\n      view\r\n      returns(\r\n        uint[] memory ids\r\n      )\r\n    {\r\n        return _personaIdDataToBeValidate[personaId];\r\n    }\r\n\r\n     function getDataToBeValidatedById(\r\n        uint dataToBeValidatedId\r\n    ) public\r\n      view\r\n      returns(\r\n        uint idPersona,\r\n        uint price,\r\n        string memory field,\r\n        string memory ipfsPath,\r\n        ValidationStatus lastStatus\r\n      )\r\n    {\r\n        DataToBeValidated storage data = _validations[dataToBeValidatedId];\r\n        return(\r\n            data.idPersona,\r\n            data.price,\r\n            data.field,\r\n            data.ipfsPath,\r\n            data.lastStatus\r\n        );\r\n    }\r\n\r\n    function getIdsStampsByDataToBeValidatedId(\r\n        uint dataToBeValidatedId\r\n    ) public\r\n      view\r\n      returns(\r\n        uint[] memory ids\r\n      )\r\n    {\r\n        return _dataToBeValidateStamps[dataToBeValidatedId];\r\n    }\r\n\r\n     function getStampById(\r\n        uint stampId\r\n    ) public\r\n      view\r\n      returns(\r\n        uint idDataToBeValidated,\r\n        ValidationStatus status,\r\n        uint whenDate,\r\n        address addressValidator\r\n      )\r\n    {\r\n        Stamp storage stamp = _validationStamps[stampId];\r\n        return(\r\n            stamp.idDataToBeValidated,\r\n            stamp.status,\r\n            stamp.whenDate,\r\n            stamp.addressValidator\r\n        );\r\n    }\r\n\r\n    function getStakedValue(\r\n    ) public\r\n      view\r\n        onlyOwner()\r\n      returns(\r\n          uint\r\n      )\r\n    {\r\n        return address(this).balance;\r\n    }\r\n}",
  "sourcePath": "C:\\Files\\Repo\\Capivaracoders\\identity\\contracts\\Identity.sol",
  "compiler": {
    "name": "solc",
    "version": "0.6.7+commit.b8d736ae.Emscripten.clang"
  },
  "schemaVersion": "3.1.0",
  "updatedAt": "2020-05-19T23:03:06.218Z",
  "networkType": "ethereum",
  "devdoc": {
    "methods": {}
  },
  "userdoc": {
    "methods": {}
  }
}